:1000000072C00000A0C000009EC000009CC00000A4
:100010009AC0000098C0000096C0000094C0000084
:1000200092C0000090C000008EC000008CC0000094
:100030008AC0000088C0000086C0000084C00000A4
:1000400082C000005EC2000083C200007CC00000CD
:100050007AC0000078C0000076C0000074C00000C4
:1000600072C000002BC600006EC000006CC0000013
:100070006AC0000068C0000066C0000064C00000E4
:10008000A5C20000CAC200005EC000005CC0000043
:1000900081C6000058C0000056C0000054C00000D7
:1000A00052C0000050C000004EC000004CC0000014
:1000B0004AC0000048C0000046C0000044C0000024
:1000C00042C0000040C000003EC00000CFC600009B
:1000D0003AC0000038C0000035C7000034C000003E
:1000E00032C00000400911241FBECFEFD1E2DEBFB5
:1000F000CDBF00E00CBF12E0A0E0B2E0E2E8F7E123
:1001000000E00BBF02C007900D92A830B107D9F7ED
:1001100023E0A8E0B2E001C01D92AC39B207E1F7DC
:1001200010E0C3E7D0E000E006C021970109802F6E
:10013000FE010E94B70BC237D10780E00807A9F77C
:10014000AAD20C94BF0B5CCFCF93DF9300D0CDB776
:10015000DEB78ED760E272E0CE010196B0D1CE015B
:100160000196C4D10F900F900F90DF91CF91089519
:10017000CF93DF93EC01089A0C9A0A9A099A0D9A88
:100180000B9AE1E0F1E08081806480836C9A14989E
:100190001598E2E0F1E0808180648083749AE1E860
:1001A000F0E0808188608083EFE6F0E0808182600B
:1001B0008083808184608083E1E9F0E080818860D1
:1001C0008083E1E7F0E080818260808380818460C9
:1001D000808378941092850010928400109295008C
:1001E00010929400E4E6F0E08081877F8083E5E66A
:1001F000F0E08081877F808340E450E060E272E03D
:10020000CE010CD764EA70E0CE010ED7DF91CF911A
:1002100008958F929F92AF92BF92CF92DF92EF920A
:10022000FF926B017C01CA01B9010E947F0A23E899
:1002300039EF42E251E40E940B0B0E944C0A4B0141
:100240005C0160931C0270931D0280931E029093C8
:100250001F02D701C601880F991FAA1FBB1F6C017F
:100260007D01CC0CDD1CEE1CFF1CCC0CDD1CEE1C3F
:10027000FF1CBC01CD016C0D7D1D8E1D9F1D0E94BC
:100280007F0A23E839EF42E251E40E940B0B0E94FF
:100290004C0A609318027093190280931A0290938B
:1002A0001B02C501B4010E947F0A9B01AC0160E002
:1002B00074E284E799E40E94E4090E944C0A609386
:1002C00014027093150280931602909317021092F5
:1002D0006402109265021092660210926702660F25
:1002E000771F709389006093880082E090E090937C
:1002F0008B0080938A00E1E8F0E080818260808357
:10030000FF90EF90DF90CF90BF90AF909F908F9035
:1003100008958F929F92AF92BF92CF92DF92EF9209
:10032000FF926B017C01CA01B9010E947F0A23E898
:1003300039EF42E251E40E940B0B0E944C0A4B0140
:100340005C016093100270931102809312029093EB
:100350001302D701C601880F991FAA1FBB1F6C018A
:100360007D01CC0CDD1CEE1CFF1CCC0CDD1CEE1C3E
:10037000FF1CBC01CD016C0D7D1D8E1D9F1D0E94BB
:100380007F0A23E839EF42E251E40E940B0B0E94FE
:100390004C0A60930C0270930D0280930E029093AE
:1003A0000F02C501B4010E947F0A9B01AC0160E00D
:1003B00074E284E799E40E94E4090E944C0A609385
:1003C00008027093090280930A0290930B02109224
:1003D0006002109261021092620210926302660F34
:1003E000771F709399006093980082E090E090935B
:1003F0009B0080939A00E1E9F0E080818260808335
:10040000FF90EF90DF90CF90BF90AF909F908F9034
:100410000895109218021092190210921A02109266
:100420001B0210920C0210920D0210920E021092FA
:100430000F020895CF92DF92EF92FF92611571053E
:1004400081059105F9F01CF0129A139A02C01298D6
:1004500013986B017C0199233CF4CC24DD247601B4
:10046000C61AD70AE80AF90A24EF31E040E050E062
:10047000C701B601CEDE24EF31E040E050E0C70115
:10048000B60147DFFF90EF90DF90CF900895CF93B4
:10049000DF93EB01BEDF6B817C818D819E81CADFA2
:1004A000DF91CF910895FC018081853031F481E0A6
:1004B0009181993019F080E0089580E008951F93AC
:1004C000CF93DF93EC01CB011A821982FB011281D9
:1004D0001883E9DF882331F0123021F487E492E0B9
:1004E0009A838983DF91CF911F910895DC01119642
:1004F000ED91FC911297309719F060E272E0199536
:1005000008951F920F920FB60F9211248F939F930D
:10051000AF93BF93109A8091640290916502A0916D
:100520006602B09167020196A11DB11D809364021D
:1005300090936502A0936602B09367027894BF918E
:10054000AF919F918F910F900FBE0F901F901895B4
:100550001F920F920FB60F9211240BB60F924F936A
:100560005F936F937F938F939F93AF93BF93EF931B
:10057000FF93109840916402509165026091660269
:10058000709167028091180290911902A0911A024D
:10059000B0911B02481759076A077B072CF0E1E866
:1005A000F0E08081887F80837894FF91EF91BF9104
:1005B000AF919F918F917F916F915F914F910F902C
:1005C0000BBE0F900FBE0F901F9018951F920F92A9
:1005D0000FB60F9211248F939F93AF93BF93119AED
:1005E0008091600290916102A0916202B0916302D9
:1005F0000196A11DB11D8093600290936102A093AA
:100600006202B09363027894BF91AF919F918F91F2
:100610000F900FBE0F901F9018951F920F920FB65C
:100620000F9211240BB60F924F935F936F937F93AA
:100630008F939F93AF93BF93EF93FF931198409144
:100640006002509161026091620270916302809138
:100650000C0290910D02A0910E02B0910F0248176A
:1006600059076A077B072CF0E1E9F0E08081887F79
:1006700080837894FF91EF91BF91AF919F918F917B
:100680007F916F915F914F910F900BBE0F900FBEB6
:100690000F901F901895C12CEE24E39400E028E001
:1006A00030E040E855E260E070E08AE792E008D090
:1006B0008AE792E05DDDFFCF0895089508950895DB
:1006C000CF92EF920F93FC0180819181813091054F
:1006D00009F4BAC01CF4892B49F0CBC282309105D1
:1006E00009F460C1039709F411C2C3C2E4E6F0E063
:1006F00080818D7F80836898699AE1ECF0E0808149
:10070000806880838081806180838081886080832D
:10071000A2ECB0E08C918F738C9380818B7F80836F
:100720002630310591F024F42530310541F024C004
:100730002730310599F028303105C9F01DC0E2ECB1
:10074000F0E08081897F808317C0E2ECF0E0808157
:100750008B7F80838081826080830EC0E2ECF0E03A
:1007600080818D7F808380818460808305C0E2ECFE
:10077000F0E0808186608083013051F018F0023013
:1007800069F014C0E2ECF0E080818F7C80830EC0C1
:10079000E2ECF0E080818063808308C0E2ECF0E06E
:1007A00080818062808380818F7E8083E11006C09B
:1007B000E2ECF0E08081877F808308C0F2E0EF12F6
:1007C00005C0E2ECF0E0808188608083CC20E1F01D
:1007D000CB01BA0194D620E030E040E051E41BD7D1
:1007E0009B01AC0160E074E284E79BE4EDD520E07E
:1007F00030E040E85FE383D571D74ED6E0ECF0E01F
:100800008081826080831BC0E0ECF0E080818D7F7E
:100810008083CB01BA0173D620E030E040E851E498
:10082000FAD69B01AC0160E074E284E79BE4CCD58E
:1008300020E030E040E85FE362D550D72DD67093DA
:10084000C5006093C40015C2E5E6F0E080818E7FAC
:1008500080835298539AE9ECF0E08081806880832D
:10086000808180618083808188608083AAECB0E091
:100870008C918F738C9380818B7F808326303105A0
:1008800091F024F42530310541F024C027303105A2
:1008900099F028303105C9F01DC0EAECF0E0808104
:1008A000897F808317C0EAECF0E080818B7F8083B2
:1008B0008081826080830EC0EAECF0E080818D7FD1
:1008C000808380818460808305C0EAECF0E08081D1
:1008D00086608083013051F018F0023069F014C056
:1008E000EAECF0E080818F7C80830EC0EAECF0E0DF
:1008F00080818063808308C0EAECF0E080818062C0
:10090000808380818F7E8083E11006C0EAECF0E076
:100910008081877F808308C082E0E81205C0EAEC0E
:10092000F0E0808188608083CC20E1F0CB01BA01C7
:10093000E6D520E030E040E051E46DD69B01AC010B
:1009400060E074E284E79BE43FD520E030E040E8DB
:100950005FE3D5D4C3D6A0D5E8ECF0E08081826017
:1009600080831BC0E8ECF0E080818D7F8083CB0129
:10097000BA01C5D520E030E040E851E44CD69B01F7
:10098000AC0160E074E284E79BE41ED520E030E037
:1009900040E85FE3B4D4A2D67FD57093CD006093D6
:1009A000CC0067C1E5E6F0E080818D7F8083E1E0E7
:1009B000F1E080818E7F8083808182608083E1EDA1
:1009C000F0E0808180688083808180618083808185
:1009D00088608083A2EDB0E08C918F738C938081CE
:1009E0008B7F80832630310591F024F4253031054A
:1009F00041F024C02730310599F028303105C9F085
:100A00001DC0E2EDF0E08081897F808317C0E2EDB8
:100A1000F0E080818B7F80838081826080830EC044
:100A2000E2EDF0E080818D7F80838081846080832F
:100A300005C0E2EDF0E0808186608083013051F0F6
:100A400018F0023069F014C0E2EDF0E080818F7C94
:100A500080830EC0E2EDF0E080818063808308C077
:100A6000E2EDF0E080818062808380818F7E8083F0
:100A7000E11006C0E2EDF0E08081877F808308C04E
:100A8000E2E0EE1205C0E2EDF0E080818860808354
:100A9000CC20E1F0CB01BA0132D520E030E040E0DB
:100AA00051E4B9D59B01AC0160E074E284E79BE4BA
:100AB0008BD420E030E040E85FE321D40FD6ECD4C3
:100AC000E0EDF0E08081826080831BC0E0EDF0E02B
:100AD00080818D7F8083CB01BA0111D520E030E089
:100AE00040E851E498D59B01AC0160E074E284E7F2
:100AF0009BE46AD420E030E040E85FE300D4EED528
:100B0000CBD47093D5006093D400B3C0E5E6F0E099
:100B100080818B7F8083E4E0F1E080818E7F808321
:100B2000808182608083E1E3F1E08081806880835E
:100B3000808180618083808188608083A2E3B1E0CE
:100B40008C918F738C9380818B7F808326303105CD
:100B500091F024F42530310541F024C027303105CF
:100B600099F028303105C9F01DC0E2E3F1E0808141
:100B7000897F808317C0E2E3F1E080818B7F8083EF
:100B80008081826080830EC0E2E3F1E080818D7F0E
:100B9000808380818460808305C0E2E3F1E080810E
:100BA00086608083013051F018F0023069F014C083
:100BB000E2E3F1E080818F7C80830EC0E2E3F1E02C
:100BC00080818063808308C0E2E3F1E080818062FD
:100BD000808380818F7E8083E11006C0E2E3F1E0B4
:100BE0008081877F808308C0F2E0EF1205C0E2E3D6
:100BF000F1E0808188608083CC20E1F0CB01BA01F4
:100C00007ED420E030E040E051E405D59B01AC010A
:100C100060E074E284E79BE4D7D320E030E040E872
:100C20005FE36DD35BD538D4E0E3F1E0808182608F
:100C300080831BC0E0E3F1E080818D7F8083CB0166
:100C4000BA015DD420E030E040E851E4E4D49B01F7
:100C5000AC0160E074E284E79BE4B6D320E030E0CE
:100C600040E85FE34CD33AD517D4709335016093D5
:100C7000340178940F91EF90CF900895E0ECF0E07C
:100C800080818823ECF78091C6000895E8ECF0E0BD
:100C900080818823ECF78091CE000895E0EDF0E0AC
:100CA00080818823ECF78091D6000895E0E3F1E09D
:100CB00080818823ECF78091360108951F920F926E
:100CC0000FB60F9211240BB60F922F933F934F93B1
:100CD0005F936F937F938F939F93AF93BF93CF93C4
:100CE000DF93EF93FF9380915803909159038034E1
:100CF0009105DCF5809106029091070201968F73B1
:100D00009078992324F40197806C9F6F01969093BB
:100D1000070280930602C0910602D0910702AEDF5F
:100D2000C45ADC4F888320915803309159032F5FB8
:100D30003F4F30935903209358038D3021F481E0C5
:100D40008093570312C08A3019F0109257030DC0D8
:100D500080915703882349F0E0915503F0915603A1
:100D60008AE792E0199510925703FF91EF91DF9176
:100D7000CF91BF91AF919F918F917F916F915F9133
:100D80004F913F912F910F900BBE0F900FBE0F9080
:100D90001F9018951F920F920FB60F9211240BB649
:100DA0000F922F933F934F935F936F937F938F9304
:100DB0009F93AF93BF93CF93DF93EF93FF93809174
:100DC00011039091120380349105DCF580910402A7
:100DD0009091050201968F739078992324F40197DE
:100DE000806C9F6F01969093050280930402C091DE
:100DF0000402D09105024ADFCB5EDC4F888320914C
:100E00001103309112032F5F3F4F30931203209351
:100E100011038D3021F481E08093100312C08A30D9
:100E200019F0109210030DC080911003882349F02F
:100E3000E0910E03F0910F0384E792E01995109270
:100E40001003FF91EF91DF91CF91BF91AF919F91EF
:100E50008F917F916F915F914F913F912F910F9063
:100E60000BBE0F900FBE0F901F9018951F920F9200
:100E70000FB60F9211240BB60F922F933F934F93FF
:100E80005F936F937F938F939F93AF93BF93CF9312
:100E9000DF93EF93FF938091CA029091CB0280344D
:100EA0009105DCF5809102029091030201968F7307
:100EB0009078992324F40197806C9F6F019690930A
:100EC000030280930202C0910202D0910302E6DE87
:100ED000C253DD4F88832091CA023091CB022F5F2D
:100EE0003F4F3093CB022093CA028D3021F481E032
:100EF0008093C90212C08A3019F01092C9020DC045
:100F00008091C902882349F0E091C702F091C8029C
:100F10008EE692E019951092C902FF91EF91DF9150
:100F2000CF91BF91AF919F918F917F916F915F9181
:100F30004F913F912F910F900BBE0F900FBE0F90CE
:100F40001F9018951F920F920FB60F9211240BB697
:100F50000F922F933F934F935F936F937F938F9352
:100F60009F93AF93BF93CF93DF93EF93FF938091C2
:100F700083029091840280349105DCF58091000217
:100F80009091010201968F739078992324F4019730
:100F9000806C9F6F01969093010280930002C09134
:100FA0000002D091010282DEC957DD4F8883209173
:100FB0008302309184022F5F3F4F3093840220934D
:100FC00083028D3021F481E08093820212C08A3046
:100FD00019F0109282020DC080918202882349F09C
:100FE000E0918002F091810288E692E019951092DA
:100FF0008202FF91EF91DF91CF91BF91AF919F91CD
:101000008F917F916F915F914F913F912F910F90B1
:101010000BBE0F900FBE0F901F901895FC017383AD
:101020006283558344830895FC01808191818130DE
:10103000910579F01CF4892B39F0089582309105DF
:1010400069F0039781F008957093560360935503F8
:10105000089570930F0360930E0308957093C80270
:101060006093C7020895709381026093800208958F
:10107000FC018081918181309105D9F01CF4892B8C
:1010800039F04DC08230910531F10397B1F147C07D
:1010900020E030E0C90140915803509159031416E3
:1010A00015060CF0ECC04481558124173507D4F1A6
:1010B000089540E050E0CA012091110330911203DD
:1010C000121613060CF0DBC024813581421753073A
:1010D0000CF451C0089540E050E0CA012091CA02CA
:1010E0003091CB02121613060CF0C9C02481358151
:1010F000421753070CF46BC0089540E050E0CA015A
:101100002091830230918402121613060CF0B7C0AE
:1011100024813581421753070CF485C0089580E07F
:1011200090E00895A0915A03B0915B03A45ABC4F7C
:101130004C9180915A0390915B0301968F73907844
:10114000992324F40197806C9F6F019690935B0321
:1011500080935A038091580390915903019790937B
:10116000590380935803A281B381A20FB31F4C93FC
:101170002F5F3F4F8FCFA0911303B0911403AB5E4D
:10118000BC4F6C9120911303309114032F5F3F4F9C
:101190002F733078332334F421503109206C3F6FA2
:1011A0002F5F3F4F3093140320931303809111035B
:1011B0009091120301979093120380931103A281DF
:1011C000B381A40FB51F6C934F5F5F4F74CFA09195
:1011D000CC02B091CD02A253BD4F6C912091CC02B4
:1011E0003091CD022F5F3F4F2F733078332334F48B
:1011F00021503109206C3F6F2F5F3F4F3093CD025C
:101200002093CC028091CA029091CB0201979093D7
:10121000CB028093CA02A281B381A40FB51F6C9345
:101220004F5F5F4F5ACFA0918502B0918602A957B8
:10123000BD4F6C9120918502309186022F5F3F4F08
:101240002F733078332334F421503109206C3F6FF1
:101250002F5F3F4F30938602209385028091830257
:101260009091840201979093840280938302A281DB
:10127000B381A40FB51F6C934F5F5F4F40CF0895AC
:101280008CE593E090935603809355038DE593E0AE
:1012900090930F0380930E038EE593E09093C80222
:1012A0008093C7028FE593E0909381028093800240
:1012B000EAE7F2E011821082138212821582148210
:1012C000E4E7F2E081E090E0918380831382128270
:1012D00015821482EEE6F2E082E090E09183808352
:1012E0001382128215821482E8E6F2E083E090E035
:1012F000918380831382128215821482089550583C
:10130000BB27AA270ED04DC13ED130F043D120F0EB
:1013100031F49F3F11F41EF433C10EF4E095E7FB66
:1013200029C1E92F4FD180F3BA17620773078407E9
:10133000950718F071F49EF567C10EF4E0950B2E39
:10134000BA2FA02D0B01B90190010C01CA01A00117
:101350001124FF27591B99F0593F50F4503E68F172
:101360001A16F040A22F232F342F4427585FF3CFB3
:10137000469537952795A795F0405395C9F77EF484
:101380001F16BA0B620B730B840BBAF09150A1F0CD
:10139000FF0FBB1F661F771F881FC2F70EC0BA0F53
:1013A000621F731F841F48F4879577956795B795DB
:1013B000F7959E3F08F0B3CF9395880F08F09927D3
:1013C000EE0F9795879508950CD0EBC0E3D040F0D1
:1013D000DAD030F021F45F3F19F0CCC0511115C1C3
:1013E000CFC0F0D098F39923C9F35523B1F3951BDF
:1013F000550BBB27AA2762177307840738F09F5F36
:101400005F4F220F331F441FAA1FA9F333D00E2EA4
:101410003AF0E0E830D091505040E695001CCAF711
:1014200029D0FE2F27D0660F771F881FBB1F2617D6
:1014300037074807AB07B0E809F0BB0B802DBF01A9
:10144000FF2793585F4F2AF09E3F510568F092C0E6
:10145000DCC05F3FECF3983EDCF3869577956795AB
:10146000B795F7959F5FC9F7880F911D969587955A
:1014700097F90895E1E0660F771F881FBB1F621779
:1014800073078407BA0720F0621B730B840BBA0B37
:10149000EE1F88F7E095089504D06894B111B5C0A7
:1014A000089598D088F09F5790F0B92F9927B75199
:1014B000A0F0D1F0660F771F881F991F1AF0BA9518
:1014C000C9F712C0B13081F09FD0B1E008959CC03F
:1014D000672F782F8827B85F39F0B93FCCF386950E
:1014E00077956795B395D9F73EF49095809570956B
:1014F00061957F4F8F4F9F4F0895E89409C097FBE8
:101500003EF490958095709561957F4F8F4F9F4FDA
:101510009923A9F0F92F96E9BB279395F69587951E
:1015200077956795B795F111F8CFFAF4BB0F11F4E1
:1015300060FF1BC06F5F7F4F8F4F9F4F16C0882388
:1015400011F096E911C0772321F09EE8872F762FBE
:1015500005C0662371F096E8862F70E060E02AF0FF
:101560009A95660F771F881FDAF7880F96958795EB
:1015700097F9089597F99F6780E870E060E0089513
:101580009FEF80EC089500240A941616170618069B
:101590000906089500240A94121613061406050677
:1015A0000895092E0394000C11F4882352F0BB0F08
:1015B00040F4BF2B11F460FF04C06F5F7F4F8F4F6B
:1015C0009F4F089557FD9058440F551F59F05F3FA6
:1015D00071F04795880F97FB991F61F09F3F79F055
:1015E00087950895121613061406551FF2CF4695D7
:1015F000F1DF08C0161617061806991FF1CF869559
:101600007105610508940895E894BB27662777273C
:10161000CB0197F908950BD0C4CFB5DF28F0BADF1E
:1016200018F0952309F0A6CFABCF1124EECFCADF77
:10163000A0F3959FD1F3950F50E0551F629FF001E5
:10164000729FBB27F00DB11D639FAA27F00DB11D3E
:10165000AA1F649F6627B00DA11D661F829F2227C7
:10166000B00DA11D621F739FB00DA11D621F839F4E
:10167000A00D611D221F749F3327A00D611D231F24
:10168000849F600D211D822F762F6A2F11249F5772
:1016900050408AF0E1F088234AF0EE0FFF1FBB1F95
:1016A000661F771F881F91505040A9F79E3F510534
:1016B00070F060CFAACF5F3FECF3983EDCF38695E5
:1016C00077956795B795F795E7959F5FC1F7FE2BDF
:1016D000880F911D9695879597F908957BDFE0F027
:1016E0009E37D8F09639B8F49E3848F4672F782F93
:1016F0008827985FF9CF8695779567959395953963
:10170000D0F3B62FB1706B0F711D811D20F487953A
:1017100077956795939502C01CC077CF882371F4A5
:10172000772321F09850872B762F07C0662311F47A
:1017300099270DC09051862B70E060E02AF09A95B1
:10174000660F771F881FDAF7880F9695879597F9A8
:1017500008959F3F31F0915020F4879577956795D4
:10176000B795880F911D9695879597F90895EE0F77
:10177000FF1F881F8BBF0790F691E02D1994F894F6
:02178000FFCF99
:08178200FFFFFFFFFFFFFFFF67
:00000001FF
